S01700004361725F7374617469635F617263682E7372656313
S113000030C0000049C0000047C000000FC100001C
S113001043C0000041C000003FC000003DC00000DC
S11300203BC0000039C0000037C0000026C30000F8
S113003033C0000031C000002FC000002DC00000FC
S11300402BC0000029C0000027C0000025C000000C
S113005023C000005F026A02750280028B029602CE
S1130060A10211241FBECFE5D8E0DEBFCDBF10E052
S1130070A0E6B0E0E6E1F7E002C005900D92A036FC
S1130080B107D9F720E0A0E6B0E001C01D92A03787
S1130090B207E1F717D33DC3B3CFAB01BC014115A0
S11300A051056105710571F408950197F1F72F5F0A
S11300B03F4FC901A0E0B0E084179507A607B70732
S11300C018F0089520E030E088EE93E0EECFFC01D4
S11300D0892B09F451C080818130C1F028F082302D
S11300E039F18330B9F14AC082818F3F31F49AB338
S11300F08181892B8ABB80E00895811141C09AB324
S11301008181809589238ABB80E0089582818F3F15
S113011031F497B38181892B87BB80E008958111E5
S113012031C097B381818095892387BB80E008958E
S113013082818F3F31F494B38181892B84BB80E029
S11301400895811121C094B381818095892384BB52
S113015080E0089582818F3F31F491B38181892BAE
S113016081BB80E00895811111C091B38181809594
S1130170892381BB80E0089581E0089581E008959A
S113018081E0089581E0089581E0089581E0089573
S11301908130A9F028F0823009F1833071F13CC03C
S11301A04F3F29F48BB3682B6BBB80E0089541115A
S11301B035C08BB3609568236BBB80E008954F3FD7
S11301C029F488B3682B68BB80E00895411128C0E6
S11301D088B36095682368BB80E008954F3F29F495
S11301E085B3682B65BB80E0089541111BC085B3BE
S11301F06095682365BB80E008954F3F29F482B37E
S1130200682B62BB80E0089541110EC082B36095F3
S1130210682362BB80E0089581E0089581E0089539
S113022081E0089581E0089581E008951F920F927E
S11302300FB60F9211242F933F934F935F936F93B5
S11302407F938F939F93AF93BF93EF93FF9380918B
S1130250620081110DC060E070E02BD094B780E49F
S1130260892784BF809162008F5F8093620010C0F1
S113027080E086D160E670E080E0BDD160E070E0AF
S113028080E0E2D11092620094B780E4892784BFB1
S1130290FF91EF91BF91AF919F918F917F916F915A
S11302A05F914F913F912F910F900FBE0F901F9030
S11302B01895813009F477C020F0823009F4E2C047
S11302C04BC180916300813009F048C162BF8091C5
S11302D06900813009F451C020F0823009F458C01B
S11302E03FC180916600843009F128F4813041F0E7
S11302F0823089F037C1863021F1873069F132C10B
S113030083B78B7F83BF83B78D7F83BF83B78160C0
S113031083BF80E0089583B78B7F83BF83B78E7FCD
S113032083BF83B7826083BF80E0089583B78B7FE8
S113033083BF83B7826083BF83B7816083BF80E05C
S1130340089583B78E7F83BF83B78D7F83BF83B7C1
S1130350846083BF80E0089583B7816083BF83B7DF
S11303608D7F83BF83B7846083BF83B78E7F83BF52
S113037083B7826083BF80E0089583B7846083BFBE
S113038083B7826083BF83B7816083BF80E00895B1
S113039083B7846083BF83B78E7F83BF83B7816055
S11303A083BF80E0089580916400813009F0DCC04F
S11303B0609570957DBD6CBD80916A00813009F4B3
S11303C04BC020F0823009F452C0D0C08091670045
S11303D0843009F128F4813041F0823089F0C8C0BA
S11303E0863021F1873069F1C3C08EB58B7F8EBD15
S11303F08EB58D7F8EBD8EB581608EBD80E00895F3
S11304008EB58B7F8EBD8EB58E7F8EBD8EB5826090
S11304108EBD80E008958EB58B7F8EBD8EB58160D4
S11304208EBD8EB582608EBD80E008958EB58D7FC1
S11304308EBD8EB58E7F8EBD8EB584608EBD80E000
S113044008958EB58D7F8EBD8EB581608EBD8EB5BF
S113045084608EBD80E008958EB582608EBD8EB5B9
S113046081608EBD8EB584608EBD80E008958EB5AA
S113047082608EBD8EB584608EBD8EB58E7F8EBD3E
S113048080E0089580916500813009F073C0609523
S113049064BD80916B00882329F0833008F46CC01C
S11304A081E00895E09168008E2F90E0FC0131977F
S11304B0E730F10508F062C0E65DFF4F24C185B561
S11304C0846085BD85B5826085BD85B5816085BD47
S11304D080E0089585B58E7F85BD85B58B7F85BD0C
S11304E085B5826085BD80E0089585B58B7F85BD27
S11304F085B5816085BD85B5826085BD80E0089540
S113050085B5846085BD85B58E7F85BD85B58D7FB8
S113051085BD80E0089585B5846085BD85B581601D
S113052085BD85B58D7F85BD80E0089585B58460E2
S113053085BD85B5826085BD85B58E7F85BD80E02E
S1130540089585B5846085BD85B5826085BD85B512
S1130550816085BD80E0089581E0089581E008957B
S113056081E0089581E0089581E0089581E008958F
S113057081E0089581E0089580E0089581E0089580
S1130580813099F018F08230F9F02DC08091630029
S1130590813059F583B7846083BF83B7826083BF9A
S11305A083B7816083BF80E00895809164008130C7
S11305B0F1F483B78B7F83BF83B78D7F83BF83B70A
S11305C08E7F83BF80E0089580916500813089F437
S11305D085B58E7F85BD85B58B7F85BD85B58D7FC2
S11305E085BD80E0089581E0089581E0089581E06B
S11305F0089581E00895E82FF0E0ED59FF4F9081D0
S11306009130F1F4FB0111821082813059F018F01D
S1130610823079F017C082B790E0FB019183808328
S113062080E008958CB59DB5FB019183808380E0C3
S1130630089584B590E0FB019183808380E0089560
S113064081E0089581E00895813049F018F0823006
S113065069F011C0FB01808182BF80E00895FB0135
S1130660808190E09DBD8CBD80E00895FB01808178
S113067084BD80E0089581E008951F920F920FB623
S11306800F9211248F939F93AF93BF9380916C002B
S113069090916D00A0916E00B0916F000196A11D24
S11306A0B11D80936C0090936D00A0936E00B09385
S11306B06F00BF91AF919F918F910F900FBE0F90DC
S11306C01F901895CF93DF9300D01F92CDB7DEB75C
S11306D0198282E08A838FEF8B83CE010196F7DC47
S11306E04FEF62E080E054DD68EE73E080E090E07C
S11306F0D4DC40E062E080E04BDD68EE73E080E053
S113070090E0CBDCEDCFEE0FFF1F0590F491E02DD0
S10907100994F894FFCFE8
S9030000FC
