S01700004361725F7374617469635F617263682E7372656313
S113000030C000004AC0000048C000004DC30000DA
S113001044C0000042C0000040C000003EC00000D8
S11300203CC000003AC0000038C00000BDC700005A
S113003034C0000032C0000030C000002EC00000F8
S11300402CC000002AC0000028C0000026C0000008
S113005024C00000C806D306DE06E906F406FF063F
S11300600A0711241FBECFE5D8E0DEBFCDBF10E0E4
S1130070A0E6B0E0E6EDF0E102C005900D92AC37E9
S1130080B107D9F720E0ACE7B0E001C01D92A83970
S1130090B207E1F7AED70C946908B2CFCF936BD116
S11300A0C82F31D0811105C081E0C11103C080E0A7
S11300B001C081E0CF910895CF93DF9300D0CDB7F5
S11300C0DEB782D1CE010196A0D189819A8188328E
S11300D0910520F064E182E026D00FC09C012551F7
S11300E031092331310520F464E183E01CD005C0DB
S11300F0449718F464E181E016D080E00F900F90EB
S1130100DF91CF910895CF9381E075D0C82F82E01D
S113011072D0811105C081E0C11103C080E001C02B
S113012081E0CF910895CF93C62F823029F128F42E
S1130130882349F0813099F041C0833059F18430EB
S113014009F432C03BC081E0F3D082E0F1D060E03A
S113015082E0D7D060E081E0D4D080E030C082E09B
S1130160D0D06C2F81E0CDD061E081E077D061E028
S113017082E074D080E023C062E382E0C2D062E314
S113018081E0BFD062E081E069D062E082E066D0C5
S113019080E015C081E0CCD062E382E0B2D061E0BF
S11301A082E05CD080E00BC082E0C2D062E381E0F8
S11301B0A8D061E081E052D081E001C081E0CF911C
S11301C00895AB01BC01411551056105710571F438
S11301D008950197F1F72F5F3F4FC901A0E0B0E008
S11301E084179507A607B70718F0089520E030E0B4
S11301F088EE93E0EECF1F93CF93DF9300D000D02F
S11302001F92CDB7DEB7182F83E089838FEF8A83DF
S11302108B8381E08C8386E08D83CE01049687D224
S113022082E08C83CE01049682D2113019F0123010
S113023031F00AC0CE0101960ED180E006C0CE0195
S1130240019609D180E001C081E00F900F900F90DA
S11302500F900F90DF91CF911F910895813019F085
S1130260823029F148C0613071F018F06230A9F091
S113027044C040E064E083E04FD140E068E083E0C4
S11302804BD180E0089540E064E083E045D14FEF36
S113029068E083E041D180E008954FEF64E083E0BB
S11302A03BD140E068E083E037D180E008956130DD
S11302B071F018F06230A9F022C040E060E483E0FD
S11302C02BD140E060E883E027D180E0089540E04E
S11302D060E483E021D14FEF60E883E01DD180E04A
S11302E008954FEF60E483E017D140E060E883E0D5
S11302F013D180E0089581E0089581E0089581E0BC
S11303000895813019F0823049F010C02EE330E0B6
S113031040E050E082E0DFD280E008952EE330E058
S113032040E050E081E0D7D280E0089581E0089574
S1130330813019F0823079F01CC040E060E183E044
S1130340EBD040E068E083E0E7D040E064E083E0A5
S1130350E3D080E0089540E060E283E0DDD040E057
S113036060E483E0D9D040E060E883E0D5D080E069
S1130370089581E00895CF93DF9300D000D01F92B9
S1130380CDB7DEB781E0898388E08A838FEF8B83E2
S1130390CE01019660D084E08A831B82CE0101964F
S11303A05AD082E08C831D82CE01049603D191E061
S11303B0811101C090E0892F0F900F900F900F9042
S11303C00F90DF91CF910895CF93DF934FEF68E0C3
S11303D081E0A2D0D82F61E070E080E090E0F1DE0F
S11303E040E068E081E098D0813029F0C1E0D1306C
S11303F019F0C0E001C0C1E061E070E080E090E08D
S1130400E0DE8C2FDF91CF9108950F931F93CF934C
S1130410DF9300D000D0CDB7DEB78C0119821A82E9
S11304201B821C82AE014F5F5F4F61E082E004D10A
S113043029813A81F8013183208391E0813009F0E8
S113044090E0892F0F900F900F900F90DF91CF9134
S11304501F910F910895FC01892B09F451C08081EB
S11304608130C1F028F0823039F18330B9F14AC0CB
S113047082818F3F31F49AB38181892B8ABB80E0DA
S11304800895811141C09AB38181809589238ABBE3
S113049080E0089582818F3F31F497B38181892B65
S11304A087BB80E00895811131C097B38181809525
S11304B0892387BB80E0089582818F3F31F494B310
S11304C08181892B84BB80E00895811121C094B37C
S11304D081818095892384BB80E0089582818F3F48
S11304E031F491B38181892B81BB80E0089581111E
S11304F011C091B381818095892381BB80E00895E7
S113050081E0089581E0089581E0089581E00895EF
S113051081E0089581E008958130A9F028F08230C7
S113052009F1833071F13CC04F3F29F48BB3682B40
S11305306BBB80E00895411135C08BB3609568238F
S11305406BBB80E008954F3F29F488B3682B68BBE8
S113055080E00895411128C088B36095682368BB82
S113056080E008954F3F29F485B3682B65BB80E094
S1130570089541111BC085B36095682365BB80E075
S113058008954F3F29F482B3682B62BB80E008953D
S113059041110EC082B36095682362BB80E0089568
S11305A081E0089581E0089581E0089581E008954F
S11305B081E008950F931F93CF93DF9300D000D071
S11305C01F92CDB7DEB7009761F1FC012181222390
S11305D021F0233010F181E025C08C01BE016B5F56
S11305E07F4F80E071D48130D1F419821A828B83D9
S11305F087E08C83CE0101965AD281110AC0F8019A
S11306008081823041F4789484B7806484BF80E030
S113061009C081E007C080E005C080E003C081E03C
S113062001C081E00F900F900F900F900F90DF9119
S1130630CF911F910F9108950F931F93823029F446
S11306408BB780628BBF80E001C081E0613081F0B4
S113065018F06230C9F024C000917C0010917D0034
S113066020E030E0FA01008311832283338319C030
S1130670009180001091810020E030E0FA010083B5
S11306801183228333830DC000917E0010917F007B
S113069020E030E0FA01008311832283338301C018
S11306A081E01F910F9108951F920F920FB60F9240
S11306B011242F933F934F935F936F937F938F9363
S11306C09F93AF93BF93EF93FF9380918200811127
S11306D00DC060E070E056D294B780E4892784BFEF
S11306E0809182008F5F8093820010C080E0B1D33C
S11306F060E870E080E016D460E070E080E03BD415
S11307001092820094B780E4892784BFFF91EF910F
S1130710BF91AF919F918F917F916F915F914F9115
S11307203F912F910F900FBE0F901F9018950F932C
S11307301F93CF93DF9300D01F92CDB7DEB70097FE
S113074009F4BFC08C01DC018C91813089F138F04F
S1130750823009F45CC0833009F488C0B0C083B728
S1130760806483BF83B7877F83BF83B7806283BF7F
S113077083B78F7E83BF81E089838FEF8B8388E08B
S11307808A83CE01019667DE91E0811101C090E079
S1130790F801208130E0F901E957FF4FD8011196A3
S11307A08C918083F901ED57FF4F81E080838AC0EB
S11307B08FB58D7F8FBD8EB580618EBD8FB58E7FD9
S11307C08FBD8EB5877F8EBD8FB580688FBD8FB589
S11307D08F7B8FBD83E089838FEF8B8380E28A8355
S11307E0CE01019638DE91E0811101C090E0F8015C
S11307F0208130E0F901E957FF4FD80111968C911F
S11308008083F901ED57FF4F81E080835BC08FB592
S11308108D7F8FBD8FB58E7F8FBD8EB580618EBD70
S11308208EB5877F8EBD8FB580628FBD8FB58F7E6D
S11308308FBD83E089838FEF8B8380E18A83CE0130
S1130840019609DE91E0811101C090E0F801208158
S113085030E0F901E957FF4FD80111968C9180835C
S1130860F901ED57FF4F81E080832CC085B580648A
S113087085BD85B5877F85BD85B5806285BD85B518
S11308808F7E85BD83E089838FEF8B8380E88A83A5
S1130890CE010196E0DD91E0811101C090E0F80104
S11308A0208130E0F901E957FF4FD80111968C916E
S11308B08083F901ED57FF4F81E0808303C091E00D
S11308C001C091E0892F0F900F900F90DF91CF918D
S11308D01F910F910895CF92DF92EF92FF920F93A1
S11308E01F93CF93C62F69017A01813009F43FC069
S11308F038F0823009F47CC0833009F4AFC0C5C03D
S113090080918300813009F0C2C0E0918700F0E05B
S1130910EE0FFF1FE259FF4F408151818EEF91E0AE
S1130920489F9001499F300D589F300D112440E09D
S113093050E060E074E284EF90E076D311E02C158F
S11309403D054E055F0509F410E02FEFC29FC0017D
S1130950112464E670E055D36CBF93B7E09187002F
S1130960F0E0E959FF4F8081892B83BF97C08091C4
S11309708400813009F08DC08FB580688FBD8FB53C
S11309808F7B8FBD07E810E0D8011196EC91F0E061
S1130990EE0FFF1FE259FF4F408151818EEF91E02E
S11309A0489F9001499F300D589F300D112440E01D
S11309B050E060E074E284EF90E036D337BD26BDAA
S11309C0A6B5B7B52C2F30E057D324E630E040E08D
S11309D050E02AD33BBD2ABD9EB5D8011196EC91B7
S11309E0F0E0E959FF4F8081892B8EBD10E056C09D
S11309F080918500813009F04EC08FB580628FBD33
S1130A008FB58F7E8FBD0091890010E0F801EE0F45
S1130A10FF1FE259FF4FA081B181AA0FBB1F3BD337
S1130A209B01AC0160E074E284EF90E0FDD237BD3D
S1130A3026BDA6B5B7B52C2F30E01ED324E630E092
S1130A4040E050E0F1D239BD28BD9EB5F801E95926
S1130A50FF4F8081892B8EBD10E020C080918600DD
S1130A608130D9F4BFEF6B9FC001112464E670E0BC
S1130A70C8D263BD95B5E0918A00F0E0E05AFF4F1B
S1130A808081892B85BD10E009C011E007C011E009
S1130A9005C011E003C011E001C011E0812FCF9126
S1130AA01F910F91FF90EF90DF90CF900895FC017C
S1130AB0892B09F465C03081832F90E0DC01A257B3
S1130AC0BF4F23812C932181213009F446C020F0AB
S1130AD0223009F448C04CC0313091F018F0323063
S1130AE031F135C083B7887F83BF8281813021F49F
S1130AF089B7816089BF2BC089B78E7F89BF27C022
S1130B008FB58D7F8FBD8FB58E7F8FBD8EB5877F5F
S1130B108EBD8EB58F7E8EBD8281811104C089B752
S1130B208E7F89BF14C089B7816089BF10C085B525
S1130B30877F85BD85B58F7B85BD8281811104C08A
S1130B4089B78E7F89BF03C089B7816089BFA081BF
S1130B50B0E0AF56BF4F1C920BC0DC01AF56BF4F85
S1130B6021E02C9305C0DC01AF56BF4F22E02C934B
S1130B70E081F0E0E557FF4F81E0808380E0089555
S1130B8081E00895813009F477C020F0823009F4BF
S1130B90E2C04BC180918B00813009F048C162BF33
S1130BA080919100813009F451C020F0823009F421
S1130BB058C03FC180918E00843009F128F48130FF
S1130BC041F0823089F037C1863021F1873069F1F4
S1130BD032C183B78B7F83BF83B78D7F83BF83B7D6
S1130BE0816083BF80E0089583B78B7F83BF83B721
S1130BF08E7F83BF83B7826083BF80E0089583B70D
S1130C008B7F83BF83B7826083BF83B7816083BFD9
S1130C1080E0089583B78E7F83BF83B78D7F83BFC2
S1130C2083B7846083BF80E0089583B7816083BF06
S1130C3083B78D7F83BF83B7846083BF83B78E7F81
S1130C4083BF83B7826083BF80E0089583B78460E5
S1130C5083BF83B7826083BF83B7816083BF80E033
S1130C60089583B7846083BF83B78E7F83BF83B7C0
S1130C70816083BF80E0089580918C00813009F009
S1130C80DCC0609570957DBD6CBD80919200813013
S1130C9009F44BC020F0823009F452C0D0C08091D6
S1130CA08F00843009F128F4813041F0823089F0DA
S1130CB0C8C0863021F1873069F1C3C08EB58B7FFF
S1130CC08EBD8EB58D7F8EBD8EB581608EBD80E06C
S1130CD008958EB58B7F8EBD8EB58E7F8EBD8EB5FD
S1130CE082608EBD80E008958EB58B7F8EBD8EB5FB
S1130CF081608EBD8EB582608EBD80E008958EB514
S1130D008D7F8EBD8EB58E7F8EBD8EB584608EBD7B
S1130D1080E008958EB58D7F8EBD8EB581608EBDC9
S1130D208EB584608EBD80E008958EB582608EBDE0
S1130D308EB581608EBD8EB584608EBD80E00895D1
S1130D408EB582608EBD8EB584608EBD8EB58E7F6D
S1130D508EBD80E0089580918D00813009F073C0CC
S1130D60609564BD80919300882329F0833008F452
S1130D706CC081E00895E09190008E2F90E0FC011A
S1130D803197E730F10508F062C0E65DFF4F6EC1B0
S1130D9085B5846085BD85B5826085BD85B5816076
S1130DA085BD80E0089585B58E7F85BD85B58B7F33
S1130DB085BD85B5826085BD80E0089585B58B7F4E
S1130DC085BD85B5816085BD85B5826085BD80E0C2
S1130DD0089585B5846085BD85B58E7F85BD85B54F
S1130DE08D7F85BD80E0089585B5846085BD85B51A
S1130DF0816085BD85B58D7F85BD80E0089585B50D
S1130E00846085BD85B5826085BD85B58E7F85BDD1
S1130E1080E0089585B5846085BD85B5826085BD13
S1130E2085B5816085BD80E0089581E0089581E005
S1130E30089581E0089581E0089581E0089581E0B6
S1130E40089581E0089581E0089580E0089581E0A7
S1130E500895813099F018F08230F9F02DC0809116
S1130E608B00813059F583B7846083BF83B7826078
S1130E7083BF83B7816083BF80E0089580918C0035
S1130E808130F1F483B78B7F83BF83B78D7F83BFBA
S1130E9083B78E7F83BF80E0089580918D00813079
S1130EA089F485B58E7F85BD85B58B7F85BD85B578
S1130EB08D7F85BD80E0089581E0089581E00895E7
S1130EC081E0089581E00895E82FF0E0E557FF4FB1
S1130ED090819130E9F4FB019083813059F018F04E
S1130EE0823079F017C008B600FE16C0FB011082EC
S1130EF080E0089508B602FE11C0FB01108280E074
S1130F00089508B606FE0CC0FB01108280E0089527
S1130F1081E0089581E0089580E0089580E00895D7
S1130F2080E00895E82FF0E0E557FF4F908191307D
S1130F30F1F4FB0111821082813059F018F08230F3
S1130F4079F017C082B790E0FB019183808380E041
S1130F5008958CB59DB5FB019183808380E008954D
S1130F6084B590E0FB019183808380E0089581E063
S1130F70089581E00895813049F018F0823069F0D5
S1130F8011C0FB01808182BF80E00895FB01808154
S1130F9090E09DBD8CBD80E00895FB01808184BDFF
S1130FA080E0089581E008951F920F920FB60F928A
S1130FB011248F939F93AF93BF938091940090914A
S1130FC09500A0919600B09197000196A11DB11DC6
S1130FD08093940090939500A0939600B09397000B
S1130FE0BF91AF919F918F910F900FBE0F901F9063
S1130FF0189554D861D864E670E080E090E0E1D8B8
S1131000F9CF97FB072E16F4009406D077FD08D08D
S11310104CD007FC05D03EF4909581959F4F0895E0
S1131020709561957F4F0895A1E21A2EAA1BBB1BF0
S1131030FD010DC0AA1FBB1FEE1FFF1FA217B307A0
S1131040E407F50720F0A21BB30BE40BF50B661FB6
S1131050771F881F991F1A9469F76095709580957A
S113106090959B01AC01BD01CF010895EE0FFF1FC8
S11310700590F491E02D0994A29FB001B39FC001A3
S1131080A39F700D811D1124911DB29F700D811DB0
S11310901124911D0895F0DFA59F900DB49F900D2C
S11310A0A49F800D911D11240895AA1BBB1B51E11F
S11310B007C0AA1FBB1FA617B70710F0A61BB70BC4
S11310C0881F991F5A95A9F780959095BC01CD0169
S10910D00895F894FFCF1F
S11310D601020304050607010200030004050100DA
S10F10E60800200040008000000100040D
S9030000FC
